{
  "contractName": "Dex",
  "abi": [
    {
      "anonymous": false,
      "inputs": [
        {
          "indexed": true,
          "internalType": "address",
          "name": "previousOwner",
          "type": "address"
        },
        {
          "indexed": true,
          "internalType": "address",
          "name": "newOwner",
          "type": "address"
        }
      ],
      "name": "OwnershipTransferred",
      "type": "event"
    },
    {
      "inputs": [
        {
          "internalType": "bytes32",
          "name": "ticker",
          "type": "bytes32"
        },
        {
          "internalType": "address",
          "name": "tokenAddress",
          "type": "address"
        }
      ],
      "name": "addToken",
      "outputs": [],
      "stateMutability": "nonpayable",
      "type": "function"
    },
    {
      "inputs": [
        {
          "internalType": "address",
          "name": "",
          "type": "address"
        },
        {
          "internalType": "bytes32",
          "name": "",
          "type": "bytes32"
        }
      ],
      "name": "balances",
      "outputs": [
        {
          "internalType": "uint256",
          "name": "",
          "type": "uint256"
        }
      ],
      "stateMutability": "view",
      "type": "function",
      "constant": true
    },
    {
      "inputs": [
        {
          "internalType": "uint256",
          "name": "amount",
          "type": "uint256"
        },
        {
          "internalType": "bytes32",
          "name": "ticker",
          "type": "bytes32"
        }
      ],
      "name": "deposit",
      "outputs": [],
      "stateMutability": "nonpayable",
      "type": "function"
    },
    {
      "inputs": [],
      "name": "nextOrderId",
      "outputs": [
        {
          "internalType": "uint256",
          "name": "",
          "type": "uint256"
        }
      ],
      "stateMutability": "view",
      "type": "function",
      "constant": true
    },
    {
      "inputs": [
        {
          "internalType": "bytes32",
          "name": "",
          "type": "bytes32"
        },
        {
          "internalType": "uint256",
          "name": "",
          "type": "uint256"
        },
        {
          "internalType": "uint256",
          "name": "",
          "type": "uint256"
        }
      ],
      "name": "orderBook",
      "outputs": [
        {
          "internalType": "uint256",
          "name": "id",
          "type": "uint256"
        },
        {
          "internalType": "address",
          "name": "trader",
          "type": "address"
        },
        {
          "internalType": "enum Dex.Side",
          "name": "side",
          "type": "uint8"
        },
        {
          "internalType": "bytes32",
          "name": "ticker",
          "type": "bytes32"
        },
        {
          "internalType": "uint256",
          "name": "amount",
          "type": "uint256"
        },
        {
          "internalType": "uint256",
          "name": "price",
          "type": "uint256"
        }
      ],
      "stateMutability": "view",
      "type": "function",
      "constant": true
    },
    {
      "inputs": [],
      "name": "owner",
      "outputs": [
        {
          "internalType": "address",
          "name": "",
          "type": "address"
        }
      ],
      "stateMutability": "view",
      "type": "function",
      "constant": true
    },
    {
      "inputs": [],
      "name": "renounceOwnership",
      "outputs": [],
      "stateMutability": "nonpayable",
      "type": "function"
    },
    {
      "inputs": [
        {
          "internalType": "uint256",
          "name": "",
          "type": "uint256"
        }
      ],
      "name": "tokenList",
      "outputs": [
        {
          "internalType": "bytes32",
          "name": "",
          "type": "bytes32"
        }
      ],
      "stateMutability": "view",
      "type": "function",
      "constant": true
    },
    {
      "inputs": [
        {
          "internalType": "bytes32",
          "name": "",
          "type": "bytes32"
        }
      ],
      "name": "tokenMapping",
      "outputs": [
        {
          "internalType": "bytes32",
          "name": "ticker",
          "type": "bytes32"
        },
        {
          "internalType": "address",
          "name": "tokenAddress",
          "type": "address"
        }
      ],
      "stateMutability": "view",
      "type": "function",
      "constant": true
    },
    {
      "inputs": [
        {
          "internalType": "address",
          "name": "newOwner",
          "type": "address"
        }
      ],
      "name": "transferOwnership",
      "outputs": [],
      "stateMutability": "nonpayable",
      "type": "function"
    },
    {
      "inputs": [
        {
          "internalType": "uint256",
          "name": "amount",
          "type": "uint256"
        },
        {
          "internalType": "bytes32",
          "name": "ticker",
          "type": "bytes32"
        }
      ],
      "name": "withdraw",
      "outputs": [],
      "stateMutability": "nonpayable",
      "type": "function"
    },
    {
      "inputs": [
        {
          "internalType": "bytes32",
          "name": "ticker",
          "type": "bytes32"
        },
        {
          "internalType": "enum Dex.Side",
          "name": "side",
          "type": "uint8"
        }
      ],
      "name": "getOrderBook",
      "outputs": [
        {
          "components": [
            {
              "internalType": "uint256",
              "name": "id",
              "type": "uint256"
            },
            {
              "internalType": "address",
              "name": "trader",
              "type": "address"
            },
            {
              "internalType": "enum Dex.Side",
              "name": "side",
              "type": "uint8"
            },
            {
              "internalType": "bytes32",
              "name": "ticker",
              "type": "bytes32"
            },
            {
              "internalType": "uint256",
              "name": "amount",
              "type": "uint256"
            },
            {
              "internalType": "uint256",
              "name": "price",
              "type": "uint256"
            }
          ],
          "internalType": "struct Dex.Order[]",
          "name": "",
          "type": "tuple[]"
        }
      ],
      "stateMutability": "view",
      "type": "function",
      "constant": true
    },
    {
      "inputs": [
        {
          "internalType": "enum Dex.Side",
          "name": "side",
          "type": "uint8"
        },
        {
          "internalType": "bytes32",
          "name": "ticker",
          "type": "bytes32"
        },
        {
          "internalType": "uint256",
          "name": "amount",
          "type": "uint256"
        },
        {
          "internalType": "uint256",
          "name": "price",
          "type": "uint256"
        }
      ],
      "name": "createLimitOrder",
      "outputs": [],
      "stateMutability": "nonpayable",
      "type": "function"
    }
  ],
  "bytecode": "0x6080604052600060045534801561001557600080fd5b5061003261002761003760201b60201c565b61003f60201b60201c565b610103565b600033905090565b60008060009054906101000a900473ffffffffffffffffffffffffffffffffffffffff169050816000806101000a81548173ffffffffffffffffffffffffffffffffffffffff021916908373ffffffffffffffffffffffffffffffffffffffff1602179055508173ffffffffffffffffffffffffffffffffffffffff168173ffffffffffffffffffffffffffffffffffffffff167f8be0079c531659141344cd1fd0a4f28419497f9722a3daafe3b4186f6b6457e060405160405180910390a35050565b61234580620001136000396000f3fe608060405234801561001057600080fd5b50600436106100cf5760003560e01c80638da5cb5b1161008c578063a8d2021a11610066578063a8d2021a14610218578063ba58ea6814610234578063c9630cb014610264578063f2fde38b14610280576100cf565b80638da5cb5b146101ae5780639776aacf146101cc5780639ead7222146101e8576100cf565b80630bb431b6146100d45780631f14df69146101095780632a58b33014610139578063667cb4ba146101575780636f3b62f914610188578063715018a6146101a4575b600080fd5b6100ee60048036038101906100e99190611877565b61029c565b604051610100969594939291906119a0565b60405180910390f35b610123600480360381019061011e9190611a2d565b61032f565b6040516101309190611a6d565b60405180910390f35b610141610354565b60405161014e9190611a6d565b60405180910390f35b610171600480360381019061016c9190611a88565b61035a565b60405161017f929190611ab5565b60405180910390f35b6101a2600480360381019061019d9190611b03565b61039e565b005b6101ac610d98565b005b6101b6610e20565b6040516101c39190611b6a565b60405180910390f35b6101e660048036038101906101e19190611b85565b610e49565b005b61020260048036038101906101fd9190611bc5565b610f84565b60405161020f9190611bf2565b60405180910390f35b610232600480360381019061022d9190611c0d565b610fa8565b005b61024e60048036038101906102499190611c4d565b611253565b60405161025b9190611df3565b60405180910390f35b61027e60048036038101906102799190611c0d565b6113a2565b005b61029a60048036038101906102959190611e15565b611600565b005b600560205282600052604060002060205281600052604060002081815481106102c457600080fd5b906000526020600020906005020160009250925050508060000154908060010160009054906101000a900473ffffffffffffffffffffffffffffffffffffffff16908060010160149054906101000a900460ff16908060020154908060030154908060040154905086565b6003602052816000526040600020602052806000526040600020600091509150505481565b60045481565b60016020528060005260406000206000915090508060000154908060010160009054906101000a900473ffffffffffffffffffffffffffffffffffffffff16905082565b600060018111156103b2576103b161191a565b5b8460018111156103c5576103c461191a565b5b141561045f576103de81836116f890919063ffffffff16565b600360003373ffffffffffffffffffffffffffffffffffffffff1673ffffffffffffffffffffffffffffffffffffffff16815260200190815260200160002060007f4554480000000000000000000000000000000000000000000000000000000000815260200190815260200160002054101561045a57600080fd5b6104ea565b6001808111156104725761047161191a565b5b8460018111156104855761048461191a565b5b14156104e95781600360003373ffffffffffffffffffffffffffffffffffffffff1673ffffffffffffffffffffffffffffffffffffffff16815260200190815260200160002060008581526020019081526020016000205410156104e857600080fd5b5b5b60006005600085815260200190815260200160002060008660018111156105145761051361191a565b5b81526020019081526020016000209050806040518060c0016040528060045481526020013373ffffffffffffffffffffffffffffffffffffffff1681526020018760018111156105675761056661191a565b5b81526020018681526020018581526020018481525090806001815401808255809150506001900390600052602060002090600502016000909190919091506000820151816000015560208201518160010160006101000a81548173ffffffffffffffffffffffffffffffffffffffff021916908373ffffffffffffffffffffffffffffffffffffffff16021790555060408201518160010160146101000a81548160ff021916908360018111156106215761062061191a565b5b0217905550606082015181600201556080820151816003015560a08201518160040155505060008082805490501161065a57600061066c565b6001828054905061066b9190611e71565b5b9050600060018111156106825761068161191a565b5b8660018111156106955761069461191a565b5b14156109f5575b60008111156109f0578181815481106106b8576106b7611ea5565b5b906000526020600020906005020160040154826001836106d89190611e71565b815481106106e9576106e8611ea5565b5b9060005260206000209060050201600401541115610706576109f0565b6000826001836107169190611e71565b8154811061072757610726611ea5565b5b90600052602060002090600502016040518060c0016040529081600082015481526020016001820160009054906101000a900473ffffffffffffffffffffffffffffffffffffffff1673ffffffffffffffffffffffffffffffffffffffff1673ffffffffffffffffffffffffffffffffffffffff1681526020016001820160149054906101000a900460ff1660018111156107c5576107c461191a565b5b60018111156107d7576107d661191a565b5b81526020016002820154815260200160038201548152602001600482015481525050905082828154811061080e5761080d611ea5565b5b90600052602060002090600502018360018461082a9190611e71565b8154811061083b5761083a611ea5565b5b9060005260206000209060050201600082015481600001556001820160009054906101000a900473ffffffffffffffffffffffffffffffffffffffff168160010160006101000a81548173ffffffffffffffffffffffffffffffffffffffff021916908373ffffffffffffffffffffffffffffffffffffffff1602179055506001820160149054906101000a900460ff168160010160146101000a81548160ff021916908360018111156108f2576108f161191a565b5b02179055506002820154816002015560038201548160030155600482015481600401559050508083838154811061092c5761092b611ea5565b5b90600052602060002090600502016000820151816000015560208201518160010160006101000a81548173ffffffffffffffffffffffffffffffffffffffff021916908373ffffffffffffffffffffffffffffffffffffffff16021790555060408201518160010160146101000a81548160ff021916908360018111156109b6576109b561191a565b5b0217905550606082015181600201556080820151816003015560a0820151816004015590505081806109e790611ed4565b9250505061069c565b610d78565b600180811115610a0857610a0761191a565b5b866001811115610a1b57610a1a61191a565b5b1415610d77575b6000811115610d7657818181548110610a3e57610a3d611ea5565b5b90600052602060002090600502016004015482600183610a5e9190611e71565b81548110610a6f57610a6e611ea5565b5b9060005260206000209060050201600401541015610a8c57610d76565b600082600183610a9c9190611e71565b81548110610aad57610aac611ea5565b5b90600052602060002090600502016040518060c0016040529081600082015481526020016001820160009054906101000a900473ffffffffffffffffffffffffffffffffffffffff1673ffffffffffffffffffffffffffffffffffffffff1673ffffffffffffffffffffffffffffffffffffffff1681526020016001820160149054906101000a900460ff166001811115610b4b57610b4a61191a565b5b6001811115610b5d57610b5c61191a565b5b815260200160028201548152602001600382015481526020016004820154815250509050828281548110610b9457610b93611ea5565b5b906000526020600020906005020183600184610bb09190611e71565b81548110610bc157610bc0611ea5565b5b9060005260206000209060050201600082015481600001556001820160009054906101000a900473ffffffffffffffffffffffffffffffffffffffff168160010160006101000a81548173ffffffffffffffffffffffffffffffffffffffff021916908373ffffffffffffffffffffffffffffffffffffffff1602179055506001820160149054906101000a900460ff168160010160146101000a81548160ff02191690836001811115610c7857610c7761191a565b5b021790555060028201548160020155600382015481600301556004820154816004015590505080838381548110610cb257610cb1611ea5565b5b90600052602060002090600502016000820151816000015560208201518160010160006101000a81548173ffffffffffffffffffffffffffffffffffffffff021916908373ffffffffffffffffffffffffffffffffffffffff16021790555060408201518160010160146101000a81548160ff02191690836001811115610d3c57610d3b61191a565b5b0217905550606082015181600201556080820151816003015560a082015181600401559050508180610d6d90611ed4565b92505050610a22565b5b5b60046000815480929190610d8b90611efe565b9190505550505050505050565b610da061170e565b73ffffffffffffffffffffffffffffffffffffffff16610dbe610e20565b73ffffffffffffffffffffffffffffffffffffffff1614610e14576040517f08c379a0000000000000000000000000000000000000000000000000000000008152600401610e0b90611fa4565b60405180910390fd5b610e1e6000611716565b565b60008060009054906101000a900473ffffffffffffffffffffffffffffffffffffffff16905090565b610e5161170e565b73ffffffffffffffffffffffffffffffffffffffff16610e6f610e20565b73ffffffffffffffffffffffffffffffffffffffff1614610ec5576040517f08c379a0000000000000000000000000000000000000000000000000000000008152600401610ebc90611fa4565b60405180910390fd5b60405180604001604052808381526020018273ffffffffffffffffffffffffffffffffffffffff16815250600160008481526020019081526020016000206000820151816000015560208201518160010160006101000a81548173ffffffffffffffffffffffffffffffffffffffff021916908373ffffffffffffffffffffffffffffffffffffffff16021790555090505060028290806001815401808255809150506001900390600052602060002001600090919091909150555050565b60028181548110610f9457600080fd5b906000526020600020016000915090505481565b80600073ffffffffffffffffffffffffffffffffffffffff166001600083815260200190815260200160002060010160009054906101000a900473ffffffffffffffffffffffffffffffffffffffff1673ffffffffffffffffffffffffffffffffffffffff16141561104f576040517f08c379a000000000000000000000000000000000000000000000000000000000815260040161104690612010565b60405180910390fd5b82600360003373ffffffffffffffffffffffffffffffffffffffff1673ffffffffffffffffffffffffffffffffffffffff16815260200190815260200160002060008481526020019081526020016000205410156110e2576040517f08c379a00000000000000000000000000000000000000000000000000000000081526004016110d99061207c565b60405180910390fd5b61114583600360003373ffffffffffffffffffffffffffffffffffffffff1673ffffffffffffffffffffffffffffffffffffffff1681526020019081526020016000206000858152602001908152602001600020546117da90919063ffffffff16565b600360003373ffffffffffffffffffffffffffffffffffffffff1673ffffffffffffffffffffffffffffffffffffffff1681526020019081526020016000206000848152602001908152602001600020819055506001600083815260200190815260200160002060010160009054906101000a900473ffffffffffffffffffffffffffffffffffffffff1673ffffffffffffffffffffffffffffffffffffffff1663a9059cbb33856040518363ffffffff1660e01b815260040161120a92919061209c565b6020604051808303816000875af1158015611229573d6000803e3d6000fd5b505050506040513d601f19601f8201168201806040525081019061124d91906120fd565b50505050565b606060056000848152602001908152602001600020600083600181111561127d5761127c61191a565b5b8152602001908152602001600020805480602002602001604051908101604052809291908181526020016000905b8282101561139657838290600052602060002090600502016040518060c0016040529081600082015481526020016001820160009054906101000a900473ffffffffffffffffffffffffffffffffffffffff1673ffffffffffffffffffffffffffffffffffffffff1673ffffffffffffffffffffffffffffffffffffffff1681526020016001820160149054906101000a900460ff1660018111156113535761135261191a565b5b60018111156113655761136461191a565b5b81526020016002820154815260200160038201548152602001600482015481525050815260200190600101906112ab565b50505050905092915050565b80600073ffffffffffffffffffffffffffffffffffffffff166001600083815260200190815260200160002060010160009054906101000a900473ffffffffffffffffffffffffffffffffffffffff1673ffffffffffffffffffffffffffffffffffffffff161415611449576040517f08c379a000000000000000000000000000000000000000000000000000000000815260040161144090612010565b60405180910390fd5b600083141561148d576040517f08c379a000000000000000000000000000000000000000000000000000000000815260040161148490612176565b60405180910390fd5b6001600083815260200190815260200160002060010160009054906101000a900473ffffffffffffffffffffffffffffffffffffffff1673ffffffffffffffffffffffffffffffffffffffff166323b872dd3330866040518463ffffffff1660e01b815260040161150093929190612196565b6020604051808303816000875af115801561151f573d6000803e3d6000fd5b505050506040513d601f19601f8201168201806040525081019061154391906120fd565b506115a783600360003373ffffffffffffffffffffffffffffffffffffffff1673ffffffffffffffffffffffffffffffffffffffff1681526020019081526020016000206000858152602001908152602001600020546117f090919063ffffffff16565b600360003373ffffffffffffffffffffffffffffffffffffffff1673ffffffffffffffffffffffffffffffffffffffff168152602001908152602001600020600084815260200190815260200160002081905550505050565b61160861170e565b73ffffffffffffffffffffffffffffffffffffffff16611626610e20565b73ffffffffffffffffffffffffffffffffffffffff161461167c576040517f08c379a000000000000000000000000000000000000000000000000000000000815260040161167390611fa4565b60405180910390fd5b600073ffffffffffffffffffffffffffffffffffffffff168173ffffffffffffffffffffffffffffffffffffffff1614156116ec576040517f08c379a00000000000000000000000000000000000000000000000000000000081526004016116e39061223f565b60405180910390fd5b6116f581611716565b50565b60008183611706919061225f565b905092915050565b600033905090565b60008060009054906101000a900473ffffffffffffffffffffffffffffffffffffffff169050816000806101000a81548173ffffffffffffffffffffffffffffffffffffffff021916908373ffffffffffffffffffffffffffffffffffffffff1602179055508173ffffffffffffffffffffffffffffffffffffffff168173ffffffffffffffffffffffffffffffffffffffff167f8be0079c531659141344cd1fd0a4f28419497f9722a3daafe3b4186f6b6457e060405160405180910390a35050565b600081836117e89190611e71565b905092915050565b600081836117fe91906122b9565b905092915050565b600080fd5b6000819050919050565b61181e8161180b565b811461182957600080fd5b50565b60008135905061183b81611815565b92915050565b6000819050919050565b61185481611841565b811461185f57600080fd5b50565b6000813590506118718161184b565b92915050565b6000806000606084860312156118905761188f611806565b5b600061189e8682870161182c565b93505060206118af86828701611862565b92505060406118c086828701611862565b9150509250925092565b6118d381611841565b82525050565b600073ffffffffffffffffffffffffffffffffffffffff82169050919050565b6000611904826118d9565b9050919050565b611914816118f9565b82525050565b7f4e487b7100000000000000000000000000000000000000000000000000000000600052602160045260246000fd5b6002811061195a5761195961191a565b5b50565b600081905061196b82611949565b919050565b600061197b8261195d565b9050919050565b61198b81611970565b82525050565b61199a8161180b565b82525050565b600060c0820190506119b560008301896118ca565b6119c2602083018861190b565b6119cf6040830187611982565b6119dc6060830186611991565b6119e960808301856118ca565b6119f660a08301846118ca565b979650505050505050565b611a0a816118f9565b8114611a1557600080fd5b50565b600081359050611a2781611a01565b92915050565b60008060408385031215611a4457611a43611806565b5b6000611a5285828601611a18565b9250506020611a638582860161182c565b9150509250929050565b6000602082019050611a8260008301846118ca565b92915050565b600060208284031215611a9e57611a9d611806565b5b6000611aac8482850161182c565b91505092915050565b6000604082019050611aca6000830185611991565b611ad7602083018461190b565b9392505050565b60028110611aeb57600080fd5b50565b600081359050611afd81611ade565b92915050565b60008060008060808587031215611b1d57611b1c611806565b5b6000611b2b87828801611aee565b9450506020611b3c8782880161182c565b9350506040611b4d87828801611862565b9250506060611b5e87828801611862565b91505092959194509250565b6000602082019050611b7f600083018461190b565b92915050565b60008060408385031215611b9c57611b9b611806565b5b6000611baa8582860161182c565b9250506020611bbb85828601611a18565b9150509250929050565b600060208284031215611bdb57611bda611806565b5b6000611be984828501611862565b91505092915050565b6000602082019050611c076000830184611991565b92915050565b60008060408385031215611c2457611c23611806565b5b6000611c3285828601611862565b9250506020611c438582860161182c565b9150509250929050565b60008060408385031215611c6457611c63611806565b5b6000611c728582860161182c565b9250506020611c8385828601611aee565b9150509250929050565b600081519050919050565b600082825260208201905092915050565b6000819050602082019050919050565b611cc281611841565b82525050565b611cd1816118f9565b82525050565b611ce081611970565b82525050565b611cef8161180b565b82525050565b60c082016000820151611d0b6000850182611cb9565b506020820151611d1e6020850182611cc8565b506040820151611d316040850182611cd7565b506060820151611d446060850182611ce6565b506080820151611d576080850182611cb9565b5060a0820151611d6a60a0850182611cb9565b50505050565b6000611d7c8383611cf5565b60c08301905092915050565b6000602082019050919050565b6000611da082611c8d565b611daa8185611c98565b9350611db583611ca9565b8060005b83811015611de6578151611dcd8882611d70565b9750611dd883611d88565b925050600181019050611db9565b5085935050505092915050565b60006020820190508181036000830152611e0d8184611d95565b905092915050565b600060208284031215611e2b57611e2a611806565b5b6000611e3984828501611a18565b91505092915050565b7f4e487b7100000000000000000000000000000000000000000000000000000000600052601160045260246000fd5b6000611e7c82611841565b9150611e8783611841565b925082821015611e9a57611e99611e42565b5b828203905092915050565b7f4e487b7100000000000000000000000000000000000000000000000000000000600052603260045260246000fd5b6000611edf82611841565b91506000821415611ef357611ef2611e42565b5b600182039050919050565b6000611f0982611841565b91507fffffffffffffffffffffffffffffffffffffffffffffffffffffffffffffffff821415611f3c57611f3b611e42565b5b600182019050919050565b600082825260208201905092915050565b7f4f776e61626c653a2063616c6c6572206973206e6f7420746865206f776e6572600082015250565b6000611f8e602083611f47565b9150611f9982611f58565b602082019050919050565b60006020820190508181036000830152611fbd81611f81565b9050919050565b7f546f6b656e206e6f74206c697374656421000000000000000000000000000000600082015250565b6000611ffa601183611f47565b915061200582611fc4565b602082019050919050565b6000602082019050818103600083015261202981611fed565b9050919050565b7f42616c616e6365206e6f742073756666696369656e7400000000000000000000600082015250565b6000612066601683611f47565b915061207182612030565b602082019050919050565b6000602082019050818103600083015261209581612059565b9050919050565b60006040820190506120b1600083018561190b565b6120be60208301846118ca565b9392505050565b60008115159050919050565b6120da816120c5565b81146120e557600080fd5b50565b6000815190506120f7816120d1565b92915050565b60006020828403121561211357612112611806565b5b6000612121848285016120e8565b91505092915050565b7f63616e6e6f74206465706f736974206e6f7468696e6700000000000000000000600082015250565b6000612160601683611f47565b915061216b8261212a565b602082019050919050565b6000602082019050818103600083015261218f81612153565b9050919050565b60006060820190506121ab600083018661190b565b6121b8602083018561190b565b6121c560408301846118ca565b949350505050565b7f4f776e61626c653a206e6577206f776e657220697320746865207a65726f206160008201527f6464726573730000000000000000000000000000000000000000000000000000602082015250565b6000612229602683611f47565b9150612234826121cd565b604082019050919050565b600060208201905081810360008301526122588161221c565b9050919050565b600061226a82611841565b915061227583611841565b9250817fffffffffffffffffffffffffffffffffffffffffffffffffffffffffffffffff04831182151516156122ae576122ad611e42565b5b828202905092915050565b60006122c482611841565b91506122cf83611841565b9250827fffffffffffffffffffffffffffffffffffffffffffffffffffffffffffffffff0382111561230457612303611e42565b5b82820190509291505056fea26469706673582212205af0fb24784286fc9e439e75d51e428abce3f2acfedc8e431a13a735f8ccd89a64736f6c634300080b0033",
  "immutableReferences": {},
  "source": "// SPDX-License-Identifier: MIT\r\npragma solidity 0.8.11;\r\npragma experimental ABIEncoderV2;\r\n\r\nimport \"./wallet.sol\";\r\n\r\ncontract Dex is Wallet {\r\n\r\n    using SafeMath for uint256;\r\n\r\n    enum Side {\r\n        BUY,\r\n        SELL\r\n    }\r\n\r\n    struct Order {\r\n        uint id;\r\n        address trader;\r\n        Side side;\r\n        bytes32 ticker;\r\n        uint amount;\r\n        uint price;\r\n    }\r\n\r\n    uint public nextOrderId = 0;\r\n\r\n    mapping(bytes32 => mapping(uint => Order[])) public orderBook;\r\n\r\n    function getOrderBook(bytes32 ticker, Side side) view public returns(Order[] memory){\r\n        return orderBook[ticker][uint(side)];\r\n    }\r\n\r\n    function createLimitOrder(Side side, bytes32 ticker, uint amount, uint price) public{\r\n        if(side == Side.BUY){\r\n           require(balances[msg.sender][\"ETH\"] >= amount.mul(price));\r\n       }\r\n        else if(side == Side.SELL){\r\n           require(balances[msg.sender][ticker] >= amount);\r\n       }\r\n\r\n        Order[] storage orders = orderBook[ticker][uint(side)];\r\n        orders.push(\r\n            Order(nextOrderId, msg.sender, side, ticker, amount, price)\r\n        );\r\n\r\n        //Bubble sort\r\n        uint i = orders.length > 0 ? orders.length - 1 : 0;\r\n\r\n        if(side == Side.BUY){\r\n            while(i > 0){\r\n                if(orders[i - 1].price > orders[i].price) {\r\n                    break;\r\n                }\r\n                Order memory orderToMove = orders[i - 1];\r\n                orders[i - 1] = orders[i];\r\n                orders[i] = orderToMove;\r\n                i--;\r\n            }\r\n        }\r\n        else if (side == Side.SELL){\r\n             while(i > 0){\r\n                if(orders[i - 1].price < orders[i].price) {\r\n                    break;\r\n                }\r\n                Order memory orderToMove = orders[i - 1];\r\n                orders[i - 1] = orders[i];\r\n                orders[i] = orderToMove;\r\n                i--;\r\n            }\r\n        }\r\n\r\n        nextOrderId++;\r\n    }\r\n\r\n   // function createMarketOrder() public{\r\n   //    \r\n   // }\r\n\r\n}",
  "sourcePath": "C:\\Users\\Admin\\Webdev\\solidity\\eth201project\\contracts\\dex.sol",
  "compiler": {
    "name": "solc",
    "version": "0.8.11+commit.d7f03943.Emscripten.clang"
  },
  "schemaVersion": "3.4.4",
  "updatedAt": "2022-01-31T11:00:20.509Z",
  "networkType": "ethereum",
  "devdoc": {
    "kind": "dev",
    "methods": {
      "owner()": {
        "details": "Returns the address of the current owner."
      },
      "renounceOwnership()": {
        "details": "Leaves the contract without owner. It will not be possible to call `onlyOwner` functions anymore. Can only be called by the current owner. NOTE: Renouncing ownership will leave the contract without an owner, thereby removing any functionality that is only available to the owner."
      },
      "transferOwnership(address)": {
        "details": "Transfers ownership of the contract to a new account (`newOwner`). Can only be called by the current owner."
      }
    },
    "version": 1
  },
  "userdoc": {
    "kind": "user",
    "methods": {},
    "version": 1
  }
}